{
  "address": "0xa57194Dda16d7ec147A13E5Af28d52190A6d5461",
  "abi": [
    {
      "inputs": [
        {
          "internalType": "address",
          "name": "_lzEndpoint",
          "type": "address"
        }
      ],
      "stateMutability": "nonpayable",
      "type": "constructor"
    },
    {
      "anonymous": false,
      "inputs": [
        {
          "indexed": false,
          "internalType": "uint16",
          "name": "_srcChainId",
          "type": "uint16"
        },
        {
          "indexed": false,
          "internalType": "bytes",
          "name": "_srcAddress",
          "type": "bytes"
        },
        {
          "indexed": false,
          "internalType": "uint64",
          "name": "_nonce",
          "type": "uint64"
        },
        {
          "indexed": false,
          "internalType": "bytes",
          "name": "_payload",
          "type": "bytes"
        },
        {
          "indexed": false,
          "internalType": "bytes",
          "name": "_reason",
          "type": "bytes"
        }
      ],
      "name": "MessageFailed",
      "type": "event"
    },
    {
      "anonymous": false,
      "inputs": [
        {
          "indexed": true,
          "internalType": "address",
          "name": "previousOwner",
          "type": "address"
        },
        {
          "indexed": true,
          "internalType": "address",
          "name": "newOwner",
          "type": "address"
        }
      ],
      "name": "OwnershipTransferred",
      "type": "event"
    },
    {
      "anonymous": false,
      "inputs": [
        {
          "indexed": false,
          "internalType": "uint16",
          "name": "_srcChainId",
          "type": "uint16"
        },
        {
          "indexed": false,
          "internalType": "bytes",
          "name": "_srcAddress",
          "type": "bytes"
        },
        {
          "indexed": false,
          "internalType": "uint64",
          "name": "_nonce",
          "type": "uint64"
        },
        {
          "indexed": false,
          "internalType": "bytes32",
          "name": "_payloadHash",
          "type": "bytes32"
        }
      ],
      "name": "RetryMessageSuccess",
      "type": "event"
    },
    {
      "anonymous": false,
      "inputs": [
        {
          "indexed": false,
          "internalType": "uint16",
          "name": "_dstChainId",
          "type": "uint16"
        },
        {
          "indexed": false,
          "internalType": "uint16",
          "name": "_type",
          "type": "uint16"
        },
        {
          "indexed": false,
          "internalType": "uint256",
          "name": "_minDstGas",
          "type": "uint256"
        }
      ],
      "name": "SetMinDstGas",
      "type": "event"
    },
    {
      "anonymous": false,
      "inputs": [
        {
          "indexed": false,
          "internalType": "address",
          "name": "precrime",
          "type": "address"
        }
      ],
      "name": "SetPrecrime",
      "type": "event"
    },
    {
      "anonymous": false,
      "inputs": [
        {
          "indexed": false,
          "internalType": "uint16",
          "name": "_remoteChainId",
          "type": "uint16"
        },
        {
          "indexed": false,
          "internalType": "bytes",
          "name": "_path",
          "type": "bytes"
        }
      ],
      "name": "SetTrustedRemote",
      "type": "event"
    },
    {
      "anonymous": false,
      "inputs": [
        {
          "indexed": false,
          "internalType": "uint16",
          "name": "_remoteChainId",
          "type": "uint16"
        },
        {
          "indexed": false,
          "internalType": "bytes",
          "name": "_remoteAddress",
          "type": "bytes"
        }
      ],
      "name": "SetTrustedRemoteAddress",
      "type": "event"
    },
    {
      "inputs": [
        {
          "internalType": "uint16",
          "name": "",
          "type": "uint16"
        },
        {
          "internalType": "bytes",
          "name": "",
          "type": "bytes"
        },
        {
          "internalType": "uint64",
          "name": "",
          "type": "uint64"
        }
      ],
      "name": "failedMessages",
      "outputs": [
        {
          "internalType": "bytes32",
          "name": "",
          "type": "bytes32"
        }
      ],
      "stateMutability": "view",
      "type": "function"
    },
    {
      "inputs": [
        {
          "internalType": "uint16",
          "name": "_srcChainId",
          "type": "uint16"
        },
        {
          "internalType": "bytes",
          "name": "_srcAddress",
          "type": "bytes"
        }
      ],
      "name": "forceResumeReceive",
      "outputs": [],
      "stateMutability": "nonpayable",
      "type": "function"
    },
    {
      "inputs": [
        {
          "internalType": "uint16",
          "name": "_version",
          "type": "uint16"
        },
        {
          "internalType": "uint16",
          "name": "_chainId",
          "type": "uint16"
        },
        {
          "internalType": "address",
          "name": "",
          "type": "address"
        },
        {
          "internalType": "uint256",
          "name": "_configType",
          "type": "uint256"
        }
      ],
      "name": "getConfig",
      "outputs": [
        {
          "internalType": "bytes",
          "name": "",
          "type": "bytes"
        }
      ],
      "stateMutability": "view",
      "type": "function"
    },
    {
      "inputs": [
        {
          "internalType": "uint16",
          "name": "_remoteChainId",
          "type": "uint16"
        }
      ],
      "name": "getTrustedRemoteAddress",
      "outputs": [
        {
          "internalType": "bytes",
          "name": "",
          "type": "bytes"
        }
      ],
      "stateMutability": "view",
      "type": "function"
    },
    {
      "inputs": [
        {
          "internalType": "uint16",
          "name": "_srcChainId",
          "type": "uint16"
        },
        {
          "internalType": "bytes",
          "name": "_srcAddress",
          "type": "bytes"
        }
      ],
      "name": "isTrustedRemote",
      "outputs": [
        {
          "internalType": "bool",
          "name": "",
          "type": "bool"
        }
      ],
      "stateMutability": "view",
      "type": "function"
    },
    {
      "inputs": [
        {
          "internalType": "address",
          "name": "",
          "type": "address"
        }
      ],
      "name": "lastMessage",
      "outputs": [
        {
          "internalType": "string",
          "name": "",
          "type": "string"
        }
      ],
      "stateMutability": "view",
      "type": "function"
    },
    {
      "inputs": [],
      "name": "lzEndpoint",
      "outputs": [
        {
          "internalType": "contract ILayerZeroEndpoint",
          "name": "",
          "type": "address"
        }
      ],
      "stateMutability": "view",
      "type": "function"
    },
    {
      "inputs": [
        {
          "internalType": "uint16",
          "name": "_srcChainId",
          "type": "uint16"
        },
        {
          "internalType": "bytes",
          "name": "_srcAddress",
          "type": "bytes"
        },
        {
          "internalType": "uint64",
          "name": "_nonce",
          "type": "uint64"
        },
        {
          "internalType": "bytes",
          "name": "_payload",
          "type": "bytes"
        }
      ],
      "name": "lzReceive",
      "outputs": [],
      "stateMutability": "nonpayable",
      "type": "function"
    },
    {
      "inputs": [
        {
          "internalType": "uint16",
          "name": "",
          "type": "uint16"
        },
        {
          "internalType": "uint16",
          "name": "",
          "type": "uint16"
        }
      ],
      "name": "minDstGasLookup",
      "outputs": [
        {
          "internalType": "uint256",
          "name": "",
          "type": "uint256"
        }
      ],
      "stateMutability": "view",
      "type": "function"
    },
    {
      "inputs": [
        {
          "internalType": "uint16",
          "name": "_srcChainId",
          "type": "uint16"
        },
        {
          "internalType": "bytes",
          "name": "_srcAddress",
          "type": "bytes"
        },
        {
          "internalType": "uint64",
          "name": "_nonce",
          "type": "uint64"
        },
        {
          "internalType": "bytes",
          "name": "_payload",
          "type": "bytes"
        }
      ],
      "name": "nonblockingLzReceive",
      "outputs": [],
      "stateMutability": "nonpayable",
      "type": "function"
    },
    {
      "inputs": [],
      "name": "owner",
      "outputs": [
        {
          "internalType": "address",
          "name": "",
          "type": "address"
        }
      ],
      "stateMutability": "view",
      "type": "function"
    },
    {
      "inputs": [],
      "name": "precrime",
      "outputs": [
        {
          "internalType": "address",
          "name": "",
          "type": "address"
        }
      ],
      "stateMutability": "view",
      "type": "function"
    },
    {
      "inputs": [],
      "name": "renounceOwnership",
      "outputs": [],
      "stateMutability": "nonpayable",
      "type": "function"
    },
    {
      "inputs": [
        {
          "internalType": "uint16",
          "name": "_srcChainId",
          "type": "uint16"
        },
        {
          "internalType": "bytes",
          "name": "_srcAddress",
          "type": "bytes"
        },
        {
          "internalType": "uint64",
          "name": "_nonce",
          "type": "uint64"
        },
        {
          "internalType": "bytes",
          "name": "_payload",
          "type": "bytes"
        }
      ],
      "name": "retryMessage",
      "outputs": [],
      "stateMutability": "payable",
      "type": "function"
    },
    {
      "inputs": [
        {
          "internalType": "string",
          "name": "message",
          "type": "string"
        },
        {
          "internalType": "uint16",
          "name": "destChainId",
          "type": "uint16"
        }
      ],
      "name": "sendMessage",
      "outputs": [],
      "stateMutability": "payable",
      "type": "function"
    },
    {
      "inputs": [
        {
          "internalType": "uint16",
          "name": "_version",
          "type": "uint16"
        },
        {
          "internalType": "uint16",
          "name": "_chainId",
          "type": "uint16"
        },
        {
          "internalType": "uint256",
          "name": "_configType",
          "type": "uint256"
        },
        {
          "internalType": "bytes",
          "name": "_config",
          "type": "bytes"
        }
      ],
      "name": "setConfig",
      "outputs": [],
      "stateMutability": "nonpayable",
      "type": "function"
    },
    {
      "inputs": [
        {
          "internalType": "uint16",
          "name": "_dstChainId",
          "type": "uint16"
        },
        {
          "internalType": "uint16",
          "name": "_packetType",
          "type": "uint16"
        },
        {
          "internalType": "uint256",
          "name": "_minGas",
          "type": "uint256"
        }
      ],
      "name": "setMinDstGas",
      "outputs": [],
      "stateMutability": "nonpayable",
      "type": "function"
    },
    {
      "inputs": [
        {
          "internalType": "address",
          "name": "_precrime",
          "type": "address"
        }
      ],
      "name": "setPrecrime",
      "outputs": [],
      "stateMutability": "nonpayable",
      "type": "function"
    },
    {
      "inputs": [
        {
          "internalType": "uint16",
          "name": "_version",
          "type": "uint16"
        }
      ],
      "name": "setReceiveVersion",
      "outputs": [],
      "stateMutability": "nonpayable",
      "type": "function"
    },
    {
      "inputs": [
        {
          "internalType": "uint16",
          "name": "_version",
          "type": "uint16"
        }
      ],
      "name": "setSendVersion",
      "outputs": [],
      "stateMutability": "nonpayable",
      "type": "function"
    },
    {
      "inputs": [
        {
          "internalType": "uint16",
          "name": "_srcChainId",
          "type": "uint16"
        },
        {
          "internalType": "bytes",
          "name": "_path",
          "type": "bytes"
        }
      ],
      "name": "setTrustedRemote",
      "outputs": [],
      "stateMutability": "nonpayable",
      "type": "function"
    },
    {
      "inputs": [
        {
          "internalType": "uint16",
          "name": "_remoteChainId",
          "type": "uint16"
        },
        {
          "internalType": "bytes",
          "name": "_remoteAddress",
          "type": "bytes"
        }
      ],
      "name": "setTrustedRemoteAddress",
      "outputs": [],
      "stateMutability": "nonpayable",
      "type": "function"
    },
    {
      "inputs": [
        {
          "internalType": "address",
          "name": "newOwner",
          "type": "address"
        }
      ],
      "name": "transferOwnership",
      "outputs": [],
      "stateMutability": "nonpayable",
      "type": "function"
    },
    {
      "inputs": [
        {
          "internalType": "uint16",
          "name": "",
          "type": "uint16"
        }
      ],
      "name": "trustedRemoteLookup",
      "outputs": [
        {
          "internalType": "bytes",
          "name": "",
          "type": "bytes"
        }
      ],
      "stateMutability": "view",
      "type": "function"
    }
  ],
  "transactionHash": "0xb4f0407876c122f986765f4e1ff480932c18a1f3f34fe98fdf7874bc813a195d",
  "args": [
    "0x7dcAD72640F835B0FA36EFD3D6d3ec902C7E5acf"
  ],
  "numDeployments": 1,
  "solcInputHash": "648d387d4dc9afd9b947e5f215293f9b",
  "bytecode": "0x60a06040523480156200001157600080fd5b50604051620021dc380380620021dc8339810160408190526200003491620000a6565b8080620000413362000056565b6001600160a01b031660805250620000d89050565b600080546001600160a01b038381166001600160a01b0319831681178455604051919092169283917f8be0079c531659141344cd1fd0a4f28419497f9722a3daafe3b4186f6b6457e09190a35050565b600060208284031215620000b957600080fd5b81516001600160a01b0381168114620000d157600080fd5b9392505050565b6080516120b762000125600039600081816103c1015281816104cc0152818161071b015281816107a4015281816108c701528181610cef01528181611131015261162101526120b76000f3fe60806040526004361061014a5760003560e01c80639f38369a116100b6578063d1deba1f1161006f578063d1deba1f14610423578063df2a5b3b14610436578063eb8d72b714610456578063f2fde38b14610476578063f5ecbdbc14610496578063faba5035146104b657600080fd5b80639f38369a1461034f578063a6c3d1651461036f578063b18dfd3d1461038f578063b353aaa7146103af578063baf3292d146103e3578063cbed8b9c1461040357600080fd5b806366ad5c8a1161010857806366ad5c8a14610263578063715018a6146102835780637533d788146102985780638cfd8f5c146102c55780638da5cb5b146102fd578063950c8a741461032f57600080fd5b80621d35671461014f57806307e0db171461017157806310ddb137146101915780633d8b38f6146101b157806342d65a8d146101e65780635b8c41e614610206575b600080fd5b34801561015b57600080fd5b5061016f61016a3660046118aa565b6104c9565b005b34801561017d57600080fd5b5061016f61018c36600461193d565b6106fa565b34801561019d57600080fd5b5061016f6101ac36600461193d565b610783565b3480156101bd57600080fd5b506101d16101cc366004611958565b6107db565b60405190151581526020015b60405180910390f35b3480156101f257600080fd5b5061016f610201366004611958565b6108a8565b34801561021257600080fd5b50610255610221366004611a55565b6004602090815260009384526040808520845180860184018051928152908401958401959095209452929052825290205481565b6040519081526020016101dd565b34801561026f57600080fd5b5061016f61027e3660046118aa565b61092e565b34801561028f57600080fd5b5061016f610a0a565b3480156102a457600080fd5b506102b86102b336600461193d565b610a1e565b6040516101dd9190611b22565b3480156102d157600080fd5b506102556102e0366004611b35565b600260209081526000928352604080842090915290825290205481565b34801561030957600080fd5b506000546001600160a01b03165b6040516001600160a01b0390911681526020016101dd565b34801561033b57600080fd5b50600354610317906001600160a01b031681565b34801561035b57600080fd5b506102b861036a36600461193d565b610ab8565b34801561037b57600080fd5b5061016f61038a366004611958565b610bc8565b34801561039b57600080fd5b506102b86103aa366004611b7d565b610c5b565b3480156103bb57600080fd5b506103177f000000000000000000000000000000000000000000000000000000000000000081565b3480156103ef57600080fd5b5061016f6103fe366004611b7d565b610c74565b34801561040f57600080fd5b5061016f61041e366004611b9a565b610cd0565b61016f6104313660046118aa565b610d65565b34801561044257600080fd5b5061016f610451366004611c08565b610f7b565b34801561046257600080fd5b5061016f610471366004611958565b61102d565b34801561048257600080fd5b5061016f610491366004611b7d565b611087565b3480156104a257600080fd5b506102b86104b1366004611c44565b611100565b61016f6104c4366004611c91565b6111b1565b337f00000000000000000000000000000000000000000000000000000000000000006001600160a01b0316146105465760405162461bcd60e51b815260206004820152601e60248201527f4c7a4170703a20696e76616c696420656e64706f696e742063616c6c6572000060448201526064015b60405180910390fd5b61ffff86166000908152600160205260408120805461056490611ce9565b80601f016020809104026020016040519081016040528092919081815260200182805461059090611ce9565b80156105dd5780601f106105b2576101008083540402835291602001916105dd565b820191906000526020600020905b8154815290600101906020018083116105c057829003601f168201915b505050505090508051868690501480156105f8575060008151115b80156106205750805160208201206040516106169088908890611d24565b6040518091039020145b61067b5760405162461bcd60e51b815260206004820152602660248201527f4c7a4170703a20696e76616c696420736f757263652073656e64696e6720636f6044820152651b9d1c9858dd60d21b606482015260840161053d565b6106f18787878080601f01602080910402602001604051908101604052809392919081815260200183838082843760009201919091525050604080516020601f8a018190048102820181019092528881528a9350915088908890819084018382808284376000920191909152506111fa92505050565b50505050505050565b610702611304565b6040516307e0db1760e01b815261ffff821660048201527f00000000000000000000000000000000000000000000000000000000000000006001600160a01b0316906307e0db17906024015b600060405180830381600087803b15801561076857600080fd5b505af115801561077c573d6000803e3d6000fd5b5050505050565b61078b611304565b6040516310ddb13760e01b815261ffff821660048201527f00000000000000000000000000000000000000000000000000000000000000006001600160a01b0316906310ddb1379060240161074e565b61ffff8316600090815260016020526040812080548291906107fc90611ce9565b80601f016020809104026020016040519081016040528092919081815260200182805461082890611ce9565b80156108755780601f1061084a57610100808354040283529160200191610875565b820191906000526020600020905b81548152906001019060200180831161085857829003601f168201915b50505050509050838360405161088c929190611d24565b60405180910390208180519060200120149150505b9392505050565b6108b0611304565b6040516342d65a8d60e01b81526001600160a01b037f000000000000000000000000000000000000000000000000000000000000000016906342d65a8d9061090090869086908690600401611d5d565b600060405180830381600087803b15801561091a57600080fd5b505af11580156106f1573d6000803e3d6000fd5b33301461098c5760405162461bcd60e51b815260206004820152602660248201527f4e6f6e626c6f636b696e674c7a4170703a2063616c6c6572206d7573742062656044820152650204c7a4170760d41b606482015260840161053d565b610a028686868080601f01602080910402602001604051908101604052809392919081815260200183838082843760009201919091525050604080516020601f89018190048102820181019092528781528993509150879087908190840183828082843760009201919091525061135e92505050565b505050505050565b610a12611304565b610a1c60006113a5565b565b60016020526000908152604090208054610a3790611ce9565b80601f0160208091040260200160405190810160405280929190818152602001828054610a6390611ce9565b8015610ab05780601f10610a8557610100808354040283529160200191610ab0565b820191906000526020600020905b815481529060010190602001808311610a9357829003601f168201915b505050505081565b61ffff8116600090815260016020526040812080546060929190610adb90611ce9565b80601f0160208091040260200160405190810160405280929190818152602001828054610b0790611ce9565b8015610b545780601f10610b2957610100808354040283529160200191610b54565b820191906000526020600020905b815481529060010190602001808311610b3757829003601f168201915b50505050509050805160001415610bad5760405162461bcd60e51b815260206004820152601d60248201527f4c7a4170703a206e6f20747275737465642070617468207265636f7264000000604482015260640161053d565b6108a1600060148351610bc09190611d91565b8391906113f5565b610bd0611304565b818130604051602001610be593929190611da8565b60408051601f1981840301815291815261ffff85166000908152600160209081529190208251610c1a93919290910190611727565b507f8c0400cfe2d1199b1a725c78960bcc2a344d869b80590d0f2bd005db15a572ce838383604051610c4e93929190611d5d565b60405180910390a1505050565b60056020526000908152604090208054610a3790611ce9565b610c7c611304565b600380546001600160a01b0319166001600160a01b0383169081179091556040519081527f5db758e995a17ec1ad84bdef7e8c3293a0bd6179bcce400dff5d4c3d87db726b9060200160405180910390a150565b610cd8611304565b6040516332fb62e760e21b81526001600160a01b037f0000000000000000000000000000000000000000000000000000000000000000169063cbed8b9c90610d2c9088908890889088908890600401611dce565b600060405180830381600087803b158015610d4657600080fd5b505af1158015610d5a573d6000803e3d6000fd5b505050505050505050565b61ffff86166000908152600460205260408082209051610d889088908890611d24565b90815260408051602092819003830190206001600160401b03871660009081529252902054905080610e085760405162461bcd60e51b815260206004820152602360248201527f4e6f6e626c6f636b696e674c7a4170703a206e6f2073746f726564206d65737360448201526261676560e81b606482015260840161053d565b808383604051610e19929190611d24565b604051809103902014610e785760405162461bcd60e51b815260206004820152602160248201527f4e6f6e626c6f636b696e674c7a4170703a20696e76616c6964207061796c6f616044820152601960fa1b606482015260840161053d565b61ffff87166000908152600460205260408082209051610e9b9089908990611d24565b90815260408051602092819003830181206001600160401b038916600090815290845282902093909355601f88018290048202830182019052868252610f33918991899089908190840183828082843760009201919091525050604080516020601f8a018190048102820181019092528881528a93509150889088908190840183828082843760009201919091525061135e92505050565b7fc264d91f3adc5588250e1551f547752ca0cfa8f6b530d243b9f9f4cab10ea8e58787878785604051610f6a959493929190611e07565b60405180910390a150505050505050565b610f83611304565b60008111610fcb5760405162461bcd60e51b81526020600482015260156024820152744c7a4170703a20696e76616c6964206d696e47617360581b604482015260640161053d565b61ffff83811660008181526002602090815260408083209487168084529482529182902085905581519283528201929092529081018290527f9d5c7c0b934da8fefa9c7760c98383778a12dfbfc0c3b3106518f43fb9508ac090606001610c4e565b611035611304565b61ffff831660009081526001602052604090206110539083836117ab565b507ffa41487ad5d6728f0b19276fa1eddc16558578f5109fc39d2dc33c3230470dab838383604051610c4e93929190611d5d565b61108f611304565b6001600160a01b0381166110f45760405162461bcd60e51b815260206004820152602660248201527f4f776e61626c653a206e6577206f776e657220697320746865207a65726f206160448201526564647265737360d01b606482015260840161053d565b6110fd816113a5565b50565b604051633d7b2f6f60e21b815261ffff808616600483015284166024820152306044820152606481018290526060907f00000000000000000000000000000000000000000000000000000000000000006001600160a01b03169063f5ecbdbc90608401600060405180830381865afa158015611180573d6000803e3d6000fd5b505050506040513d6000823e601f3d908101601f191682016040526111a89190810190611e72565b95945050505050565b600033836040516020016111c6929190611ec2565b60405160208183030381529060405290506111f582823360006040518060200160405280600081525034611502565b505050565b60008061125d5a60966366ad5c8a60e01b898989896040516024016112229493929190611ee6565b60408051601f198184030181529190526020810180516001600160e01b03166001600160e01b0319909316929092179091523092919061169d565b9150915081610a02578280519060200120600460008861ffff1661ffff168152602001908152602001600020866040516112979190611f24565b9081526040805191829003602090810183206001600160401b0389166000908152915220919091557fe183f33de2837795525b4792ca4cd60535bd77c53b7e7030060bfcf5734d6b0c906112f49088908890889088908790611f40565b60405180910390a1505050505050565b6000546001600160a01b03163314610a1c5760405162461bcd60e51b815260206004820181905260248201527f4f776e61626c653a2063616c6c6572206973206e6f7420746865206f776e6572604482015260640161053d565b600080828060200190518101906113759190611f9e565b6001600160a01b038216600090815260056020908152604090912082519395509193506106f19290840190611727565b600080546001600160a01b038381166001600160a01b0319831681178455604051919092169283917f8be0079c531659141344cd1fd0a4f28419497f9722a3daafe3b4186f6b6457e09190a35050565b60608161140381601f612002565b10156114425760405162461bcd60e51b815260206004820152600e60248201526d736c6963655f6f766572666c6f7760901b604482015260640161053d565b61144c8284612002565b845110156114905760405162461bcd60e51b8152602060048201526011602482015270736c6963655f6f75744f66426f756e647360781b604482015260640161053d565b6060821580156114af57604051915060008252602082016040526114f9565b6040519150601f8416801560200281840101858101878315602002848b0101015b818310156114e85780518352602092830192016114d0565b5050858452601f01601f1916604052505b50949350505050565b61ffff86166000908152600160205260408120805461152090611ce9565b80601f016020809104026020016040519081016040528092919081815260200182805461154c90611ce9565b80156115995780601f1061156e57610100808354040283529160200191611599565b820191906000526020600020905b81548152906001019060200180831161157c57829003601f168201915b5050505050905080516000141561160b5760405162461bcd60e51b815260206004820152603060248201527f4c7a4170703a2064657374696e6174696f6e20636861696e206973206e6f742060448201526f61207472757374656420736f7572636560801b606482015260840161053d565b60405162c5803160e81b81526001600160a01b037f0000000000000000000000000000000000000000000000000000000000000000169063c5803100908490611662908b9086908c908c908c908c9060040161201a565b6000604051808303818588803b15801561167b57600080fd5b505af115801561168f573d6000803e3d6000fd5b505050505050505050505050565b6000606060008060008661ffff166001600160401b038111156116c2576116c26119aa565b6040519080825280601f01601f1916602001820160405280156116ec576020820181803683370190505b50905060008087516020890160008d8df191503d92508683111561170e578692505b828152826000602083013e909890975095505050505050565b82805461173390611ce9565b90600052602060002090601f016020900481019282611755576000855561179b565b82601f1061176e57805160ff191683800117855561179b565b8280016001018555821561179b579182015b8281111561179b578251825591602001919060010190611780565b506117a792915061181f565b5090565b8280546117b790611ce9565b90600052602060002090601f0160209004810192826117d9576000855561179b565b82601f106117f25782800160ff1982351617855561179b565b8280016001018555821561179b579182015b8281111561179b578235825591602001919060010190611804565b5b808211156117a75760008155600101611820565b803561ffff8116811461184657600080fd5b919050565b60008083601f84011261185d57600080fd5b5081356001600160401b0381111561187457600080fd5b60208301915083602082850101111561188c57600080fd5b9250929050565b80356001600160401b038116811461184657600080fd5b600080600080600080608087890312156118c357600080fd5b6118cc87611834565b955060208701356001600160401b03808211156118e857600080fd5b6118f48a838b0161184b565b909750955085915061190860408a01611893565b9450606089013591508082111561191e57600080fd5b5061192b89828a0161184b565b979a9699509497509295939492505050565b60006020828403121561194f57600080fd5b6108a182611834565b60008060006040848603121561196d57600080fd5b61197684611834565b925060208401356001600160401b0381111561199157600080fd5b61199d8682870161184b565b9497909650939450505050565b634e487b7160e01b600052604160045260246000fd5b604051601f8201601f191681016001600160401b03811182821017156119e8576119e86119aa565b604052919050565b60006001600160401b03821115611a0957611a096119aa565b50601f01601f191660200190565b6000611a2a611a25846119f0565b6119c0565b9050828152838383011115611a3e57600080fd5b828260208301376000602084830101529392505050565b600080600060608486031215611a6a57600080fd5b611a7384611834565b925060208401356001600160401b03811115611a8e57600080fd5b8401601f81018613611a9f57600080fd5b611aae86823560208401611a17565b925050611abd60408501611893565b90509250925092565b60005b83811015611ae1578181015183820152602001611ac9565b83811115611af0576000848401525b50505050565b60008151808452611b0e816020860160208601611ac6565b601f01601f19169290920160200192915050565b6020815260006108a16020830184611af6565b60008060408385031215611b4857600080fd5b611b5183611834565b9150611b5f60208401611834565b90509250929050565b6001600160a01b03811681146110fd57600080fd5b600060208284031215611b8f57600080fd5b81356108a181611b68565b600080600080600060808688031215611bb257600080fd5b611bbb86611834565b9450611bc960208701611834565b93506040860135925060608601356001600160401b03811115611beb57600080fd5b611bf78882890161184b565b969995985093965092949392505050565b600080600060608486031215611c1d57600080fd5b611c2684611834565b9250611c3460208501611834565b9150604084013590509250925092565b60008060008060808587031215611c5a57600080fd5b611c6385611834565b9350611c7160208601611834565b92506040850135611c8181611b68565b9396929550929360600135925050565b60008060408385031215611ca457600080fd5b82356001600160401b03811115611cba57600080fd5b8301601f81018513611ccb57600080fd5b611cda85823560208401611a17565b925050611b5f60208401611834565b600181811c90821680611cfd57607f821691505b60208210811415611d1e57634e487b7160e01b600052602260045260246000fd5b50919050565b8183823760009101908152919050565b81835281816020850137506000828201602090810191909152601f909101601f19169091010190565b61ffff841681526040602082015260006111a8604083018486611d34565b634e487b7160e01b600052601160045260246000fd5b600082821015611da357611da3611d7b565b500390565b8284823760609190911b6bffffffffffffffffffffffff19169101908152601401919050565b600061ffff808816835280871660208401525084604083015260806060830152611dfc608083018486611d34565b979650505050505050565b61ffff86168152608060208201526000611e25608083018688611d34565b6001600160401b0394909416604083015250606001529392505050565b6000611e50611a25846119f0565b9050828152838383011115611e6457600080fd5b6108a1836020830184611ac6565b600060208284031215611e8457600080fd5b81516001600160401b03811115611e9a57600080fd5b8201601f81018413611eab57600080fd5b611eba84825160208401611e42565b949350505050565b6001600160a01b0383168152604060208201819052600090611eba90830184611af6565b61ffff85168152608060208201526000611f036080830186611af6565b6001600160401b03851660408401528281036060840152611dfc8185611af6565b60008251611f36818460208701611ac6565b9190910192915050565b61ffff8616815260a060208201526000611f5d60a0830187611af6565b6001600160401b03861660408401528281036060840152611f7e8186611af6565b90508281036080840152611f928185611af6565b98975050505050505050565b60008060408385031215611fb157600080fd5b8251611fbc81611b68565b60208401519092506001600160401b03811115611fd857600080fd5b8301601f81018513611fe957600080fd5b611ff885825160208401611e42565b9150509250929050565b6000821982111561201557612015611d7b565b500190565b61ffff8716815260c06020820152600061203760c0830188611af6565b82810360408401526120498188611af6565b6001600160a01b0387811660608601528616608085015283810360a085015290506120748185611af6565b999850505050505050505056fea2646970667358221220a826e24753eefbdfce4d1304e19dd48e69f4bbb4f6ad118793a72c315656850d64736f6c634300080c0033",
  "devdoc": {
    "kind": "dev",
    "methods": {
      "owner()": {
        "details": "Returns the address of the current owner."
      },
      "renounceOwnership()": {
        "details": "Leaves the contract without owner. It will not be possible to call `onlyOwner` functions anymore. Can only be called by the current owner. NOTE: Renouncing ownership will leave the contract without an owner, thereby removing any functionality that is only available to the owner."
      },
      "transferOwnership(address)": {
        "details": "Transfers ownership of the contract to a new account (`newOwner`). Can only be called by the current owner."
      }
    },
    "version": 1
  },
  "userdoc": {
    "kind": "user",
    "methods": {},
    "version": 1
  },
  "storageLayout": {
    "storage": [
      {
        "astId": 7,
        "contract": "contracts/HelloWorldMessageLZ.sol:HelloWorldMessageLZ",
        "label": "_owner",
        "offset": 0,
        "slot": "0",
        "type": "t_address"
      },
      {
        "astId": 683,
        "contract": "contracts/HelloWorldMessageLZ.sol:HelloWorldMessageLZ",
        "label": "trustedRemoteLookup",
        "offset": 0,
        "slot": "1",
        "type": "t_mapping(t_uint16,t_bytes_storage)"
      },
      {
        "astId": 689,
        "contract": "contracts/HelloWorldMessageLZ.sol:HelloWorldMessageLZ",
        "label": "minDstGasLookup",
        "offset": 0,
        "slot": "2",
        "type": "t_mapping(t_uint16,t_mapping(t_uint16,t_uint256))"
      },
      {
        "astId": 691,
        "contract": "contracts/HelloWorldMessageLZ.sol:HelloWorldMessageLZ",
        "label": "precrime",
        "offset": 0,
        "slot": "3",
        "type": "t_address"
      },
      {
        "astId": 1176,
        "contract": "contracts/HelloWorldMessageLZ.sol:HelloWorldMessageLZ",
        "label": "failedMessages",
        "offset": 0,
        "slot": "4",
        "type": "t_mapping(t_uint16,t_mapping(t_bytes_memory_ptr,t_mapping(t_uint64,t_bytes32)))"
      },
      {
        "astId": 146,
        "contract": "contracts/HelloWorldMessageLZ.sol:HelloWorldMessageLZ",
        "label": "lastMessage",
        "offset": 0,
        "slot": "5",
        "type": "t_mapping(t_address,t_string_storage)"
      }
    ],
    "types": {
      "t_address": {
        "encoding": "inplace",
        "label": "address",
        "numberOfBytes": "20"
      },
      "t_bytes32": {
        "encoding": "inplace",
        "label": "bytes32",
        "numberOfBytes": "32"
      },
      "t_bytes_memory_ptr": {
        "encoding": "bytes",
        "label": "bytes",
        "numberOfBytes": "32"
      },
      "t_bytes_storage": {
        "encoding": "bytes",
        "label": "bytes",
        "numberOfBytes": "32"
      },
      "t_mapping(t_address,t_string_storage)": {
        "encoding": "mapping",
        "key": "t_address",
        "label": "mapping(address => string)",
        "numberOfBytes": "32",
        "value": "t_string_storage"
      },
      "t_mapping(t_bytes_memory_ptr,t_mapping(t_uint64,t_bytes32))": {
        "encoding": "mapping",
        "key": "t_bytes_memory_ptr",
        "label": "mapping(bytes => mapping(uint64 => bytes32))",
        "numberOfBytes": "32",
        "value": "t_mapping(t_uint64,t_bytes32)"
      },
      "t_mapping(t_uint16,t_bytes_storage)": {
        "encoding": "mapping",
        "key": "t_uint16",
        "label": "mapping(uint16 => bytes)",
        "numberOfBytes": "32",
        "value": "t_bytes_storage"
      },
      "t_mapping(t_uint16,t_mapping(t_bytes_memory_ptr,t_mapping(t_uint64,t_bytes32)))": {
        "encoding": "mapping",
        "key": "t_uint16",
        "label": "mapping(uint16 => mapping(bytes => mapping(uint64 => bytes32)))",
        "numberOfBytes": "32",
        "value": "t_mapping(t_bytes_memory_ptr,t_mapping(t_uint64,t_bytes32))"
      },
      "t_mapping(t_uint16,t_mapping(t_uint16,t_uint256))": {
        "encoding": "mapping",
        "key": "t_uint16",
        "label": "mapping(uint16 => mapping(uint16 => uint256))",
        "numberOfBytes": "32",
        "value": "t_mapping(t_uint16,t_uint256)"
      },
      "t_mapping(t_uint16,t_uint256)": {
        "encoding": "mapping",
        "key": "t_uint16",
        "label": "mapping(uint16 => uint256)",
        "numberOfBytes": "32",
        "value": "t_uint256"
      },
      "t_mapping(t_uint64,t_bytes32)": {
        "encoding": "mapping",
        "key": "t_uint64",
        "label": "mapping(uint64 => bytes32)",
        "numberOfBytes": "32",
        "value": "t_bytes32"
      },
      "t_string_storage": {
        "encoding": "bytes",
        "label": "string",
        "numberOfBytes": "32"
      },
      "t_uint16": {
        "encoding": "inplace",
        "label": "uint16",
        "numberOfBytes": "2"
      },
      "t_uint256": {
        "encoding": "inplace",
        "label": "uint256",
        "numberOfBytes": "32"
      },
      "t_uint64": {
        "encoding": "inplace",
        "label": "uint64",
        "numberOfBytes": "8"
      }
    }
  }
}